:020000040800F2
:1000000010040020C1050008C9050008CB05000840
:10001000CD050008CF050008D1050008000000004C
:10002000000000000000000000000000D3050008F0
:10003000D505000800000000D7050008810200086F
:10004000DB050008DB050008DB050008DB05000810
:10005000DB050008DB050008DB050008DB05000800
:10006000DB050008DB050008DB050008DB050008F0
:10007000DB050008DB050008DB050008DB050008E0
:10008000DB050008DB050008DB05000800000000B8
:10009000000000000000000000000000DB05000878
:1000A000DB050008DB050008DB050008DB050008B0
:1000B000DB050008DB050008DB050008DB050008A0
:1000C000DB050008DB050008DB050008DB05000890
:1000D000DB050008DB050008DB0500080000000068
:1000E000DB050008DB050008DB0500080000000058
:1000F000000000000000000000000000DB05000818
:1001000000000000DB050008DB050008DB05000837
:1001100000000000000000000000000000000000DF
:10012000DB050008DB050008DB050008DB0500082F
:10013000DB050008000000000000000000000000D7
:10014000000000000000000000000000DB050008C7
:10015000DB050008DB050008DB050008DB050008FF
:10016000DB050008DB0500080000000000000000BF
:10017000000000000000000000000000000000007F
:1001800000000000DB050008000000000000000087
:10019000DB050008DFF810D000F0B4FA0048004793
:1001A00073030008AFF300801004002070B504460C
:1001B0000D46204600F043F870BD10B5044600F02F
:1001C0004BF810BD01464FF0FF30704710B50446A4
:1001D000204600F034F810BD00BFFEE72548006857
:1001E00040F001002349086022481030006840F4C4
:1001F00000302049103108601F48006A20F47F4019
:100200001D4908620846006A40F4EE40086208464C
:10021000006820F0F00008600846006840F0A00088
:100220000860682015490860002014490C310860F6
:10023000091F086042F20C00091F0860704700BFE8
:100240000E490839096801F080010029F8D0C1B2CF
:100250000A4A121F1160704708480838006800F009
:10026000200018B10548001F006870474FF0FF30AC
:10027000FBE7000030380240000002400844004024
:100280006C480068401C6B4908607047694A1168F7
:1002900000E000BF674A1268521A8242F9D37047E1
:1002A0006548006840F001006349086000BF62488B
:1002B000006800F002000028F9D000205E490831F3
:1002C000086000BF5C480830006800F00C0000289F
:1002D000F8D14FF48070594908600846006840F42E
:1002E000007008600846006840F4806008600846B6
:1002F000006840F0050008604F48083000684E492B
:10030000083108600846006840F4A05008600846BC
:10031000006840F4004008604748006820F08070A2
:10032000454908604648091D0860081F006840F0FC
:100330008070091F086000E000BF3F48006800F0BF
:1003400000700028F8D03C480830006820F0030016
:100350003949083108600846006840F0020008602A
:1003600000BF35480830006800F00C000828F8D1BC
:10037000704700F01DF905460024FFF791FF00F0DB
:100380005AF900F0BFF800F083F8FFF727FF2D4877
:1003900000684FF47A72B0FBF2F1481EB0F1807F32
:1003A00000D31BE0481E4FF0E022506150170F228F
:1003B000002804DB13071E0E234B1E5406E0130710
:1003C0001F0E224B00F00F06361F9F5500BF002066
:1003D0004FF0E02290610720106100BF1CA000F0E8
:1003E000A3F91FA000F0A0F900BF204600F0B3F869
:1003F0004FF4FA70FFF74AFF00BF00F072F800F008
:1004000001000028F9D1204600F0B1F84FF4FA704D
:10041000FFF73CFF00BF00F064F800F00100002887
:10042000F9D1641CAC4200DB002414A000F07CF97C
:10043000DBE700000800002000380240003C0240DA
:10044000106003080C00002000E400E018ED00E05C
:1004500048656C6C6F20576F726C640A0D00000069
:1004600057656C636F6D6520746F2043414D323169
:100470003020436C617373210A0D000043414D32FB
:10048000313020697320546F70210A0D0000000084
:100490001A48006840F002001849086018480068CF
:1004A00020F440701649086015480830006820F4B0
:1004B00040701349083108600846006840F48070B5
:1004C0000860081D006820F44070091D08600020C5
:1004D00070470B48006820F440700949086000200C
:1004E0007047002006491031096801F0100109B970
:1004F00040F0010070470120704700003038024092
:10050000000402402B48006840F0010029490860BF
:100510002948006820F440602749086008460068C0
:1005200040F4806008600846406820F02000486081
:100530000846806820F4406088600846806840F47F
:10054000806088600846C06820F44060C860002071
:100550007047002070470146002029B9174A52F819
:100560002120154B9A6101E04FF0FF3070470146A2
:10057000002031B9114A32F8212012040E4B9A6141
:1005800001E04FF0FF30704730B5054600240BE026
:100590000120A040284018B12046FFF7DCFF02E010
:1005A0002046FFF7E4FF641C012CF1DB002030BD86
:1005B00001207047303802400000024078070008F0
:1005C0000648804706480047FEE7FEE7FEE7FEE7ED
:1005D000FEE7FEE7FEE7FEE7FEE7FEE7E5050008CB
:1005E000950100083F48006840F470003D490860EC
:1005F0003D48006840F001003B49086000203A494E
:1006000008310860384800683849084036490860B1
:100610003748091D0860081F006820F48020091F62
:100620000860002030490C3108604FF000602D490F
:1006300080390860704770B5002000220223002432
:100640000221294D08352D6805F00C0020B1042841
:1006500006D0082834D107E0264D274E356033E018
:10066000264D254E35602FE01F4D2D1D2D68C5F3FD
:1006700080541D4D2D1D2D6805F03F0154B11F4DB7
:10068000B5FBF1F5184E361D3668C6F3881605FB26
:1006900006F209E0174DB5FBF1F5134E361D36682D
:1006A000C6F3881605FB06F20F4D2D1D2D68C5F308
:1006B00001456D1C6B00B2FBF3F50F4E356003E096
:1006C0000C4D0D4E356000BF00BF074D08352D683D
:1006D000C5F303150A4E705D074D2D68C540064EE3
:1006E000356070BD88ED00E000380240FFFFF6FE87
:1006F000103000240024F4000C00002040787D011C
:100700007C070008064C074D06E0E06840F0010356
:1007100094E8070098471034AC42F6D3FFF73EFD4B
:1007200094070008B4070008014A024900F013B812
:10073000AD0100080000002002E008C8121F08C137
:10074000002AFAD170477047002001E001C1121F52
:10075000002AFBD170472DE9F04116460F460446AA
:10076000002503E03946B047641C6D1C2078002842
:10077000F8D12846BDE8F08120000000000000000C
:100780000000000001020304060708090000000041
:1007900001020304B407000800000020100000005C
:1007A00038070008C40700081000002000040000FB
:1007B00048070008000000000000000000000000E2
:0407C0000024F4001D
:040000050800019559
:00000001FF
